:020000040800F2
:1000000078190020ED070008F5070008F707000839
:10001000F9070008FB070008FD07000800000000C2
:10002000000000000000000000000000FF070008C2
:100030000108000800000000030800080508000887
:100040000708000807080008070800080708000854
:100050000708000807080008070800080708000844
:100060000708000807080008070800080708000834
:100070000708000807080008070800080708000824
:100080000708000807080008070800080708000814
:100090000708000807080008070800080708000804
:1000A00007080008070800080708000807080008F4
:1000B00007080008070800080708000807080008E4
:1000C00007080008070800080708000807080008D4
:1000D00007080008B92100080708000807080008F9
:1000E00007080008070800080708000807080008B4
:1000F00007080008070800080708000807080008A4
:100100000708000807080008070800080708000893
:100110000708000807080008091E0008070800086B
:100120000708000807080008070800080708000873
:1001300000F002F800F05AF80AA090E8000C82449F
:100140008344AAF10107DA4501D100F04FF8AFF27C
:10015000090EBAE80F0013F0010F18BFFB1A43F0A5
:100160000103184714630000346300000A444FF091
:10017000000C10F8013B13F0070408BF10F8014B06
:100180001D1108BF10F8015B641E05D010F8016B4B
:10019000641E01F8016BF9D113F0080F1EBF10F8AF
:1001A000014BAD1C0C1B09D16D1E58BF01F801CBD2
:1001B000FAD505E014F8016B01F8016B6D1EF9D555
:1001C0009142D6D37047000000230024002500266A
:1001D000103A28BF78C1FBD8520728BF30C148BFAA
:1001E0000B6070471FB51FBD10B510BD00F05EFB62
:1001F0001146FFF7F7FF02F0D7FE00F07CFB03B4D7
:10020000FFF7F2FF03BC02F005FC00002DE9F04F00
:100210004FF0000C4FF0000301EB1C6EBEF90250D2
:10022000BEF900400EF5807EBEF90290BEF9008056
:100230000EF5807EBEF90270BEF900600EF5807E7C
:10024000BEF902B0BEF900A00EF5807ED044D944BC
:10025000A8EB4A0AA9EB4B0B4FEAA4044FEAA50509
:1002600004EBA60405EBA705A4EB6606A5EB670760
:1002700004EBA80405EBA905A4EB6808A5EB690944
:1002800006EBAB06A7EBAA07A6EB6B0B07EB6A0A1C
:10029000458020F8044B478020F8046BA0F80290BA
:1002A00020F8048BA0F802A020F804BB03F101039E
:1002B00093FAA3FC402BAFD1A0EB82014FF01003C7
:1002C00012090FF2361000F1000006B403EB430CE4
:1002D0006144A2F5803202EB8332B1F90250B1F9E8
:1002E0000040A1EB0301B0F902B0B0F900A000F1A9
:1002F0000400A5EB040E0EFB0BFC0AEB4B0E05FBFA
:100300000ACB04FB0ECAB1F90250B1F90040A1EBCF
:100310000301B0F90290B0F9008000F10400A5EBF0
:10032000040E0EFB09FC08EB490E05FB08C904FB93
:100330000EC8B1F90250B1F90040A1EB0301B0F9C8
:100340000270B0F9006000F10400A5EB040E0EFB92
:1003500007FC06EB470E05FB06C704FB0EC6B1F90A
:100360000250B1F9004001F10001D044D944A8EB9A
:100370004A0AA9EB4B0B4FEAA4044FEAA50504EB8C
:10038000264405EB2745A4EBE636A5EBE73704EB5F
:10039000284405EB2945A4EBE838A5EBE93906EB41
:1003A0002B46A7EB2A47A6EBEB3B07EBEA3A4D803F
:1003B0000C8019444F800E801944A1F80290A1F8D6
:1003C00000801944A1F802A021F804BBB2F58032E4
:1003D00083DA03EB430C6144A2F101025FEA024EAF
:1003E00018BFA0EB0C007FF476AF06BC4FEA830386
:1003F00092087FF46AAFBDE8F08F00400000004033
:100400000000004000005DDD213BA3227E180000BB
:10041000412D7EA5412D0000412D00C000405DDD35
:1004200082E75DDD213B7EA5412D004000000040BC
:10043000000000400000AA2A94126B394606493297
:100440007C0CA8118E2349327C0CA3227E1821F744
:100450007931AA2A9412A8118E235DDD213BA322B3
:100460007E180000412D95C6B13F461A2B1E58EE4E
:100470003735BEB4C53EA8118E235DDD213B63A98F
:100480007138DF089A28B7CDC53E7EA5412D000002
:10049000412D00C0004063A92B1E21F77931BEB465
:1004A000C53EBEB47C0C58EE373561AC213B95C6D9
:1004B000BAF9BAE571383BA737355DDD82E75DDD16
:1004C000213B7EA5412D21F766D756D53F3D3BA761
:1004D0008E23A811C9CAB7CDC53E61AC7E18AA2A21
:1004E000C1C295C6B13FBEB47C0C004000000040C4
:1004F0000000004000001E3BB504693E9201C83C6C
:100500002403EB356409C83C24036B3946066C3080
:10051000060E1E3BB504EB356409AA2A94126B390A
:10052000460649327C0CAE240917AF37D607882E11
:100530008D0F7E1E5D1BEB356409AA2A94122418C8
:100540008C1F1E34F10AB3269015A8118E23493250
:100550007C0CA3227E18140B60276C30060E7E1EC6
:100560005D1B7104FB2A882E8D0F461A2B1EC7FDBA
:100570005A2E9D2C1211FE15E72021F77931AA2A57
:100580009412A8118E2387F05334B2281314480D07
:10059000202602EAE536B3269015DF089A289CE368
:1005A0002B39AE2409177104FB2A5DDD213BA32200
:1005B0007E180000412D4ED7C53C9320EF198FFBCC
:1005C0006C2F78D1153E7E1E5D1B21F77931E2CB71
:1005D0000F3F641CC61CB8F2683395C6B13F461A7B
:1005E0002B1E58EE373597C1FB3F24188C1F02EAAB
:1005F000E536F0BCEC3FFE15E720BAE57138A6B849
:10060000853FD5133D2282E1DB39BEB4C53EA8113A
:100610008E235DDD213B40B1AF3D790FDA244DD90A
:10062000423C2EAE423C480D202656D53F3D8EAB77
:10063000823A140B602778D1153E63A97138DF0820
:100640009A28B7CDC53EB1A71236A906CE2915CA3C
:100650004F3F78A668337104FB2A95C6B13FBCA50D
:1006600076303902212C38C3EC3F7EA5412D0000A5
:10067000412D00C00040BCA5CE29C7FD5A2EF0BCBC
:10068000EC3F78A620268FFB6C2F09BAB13FB1A7AB
:100690003D2257F976304DB74F3F63A92B1E21F706
:1006A0007931BEB4C53E8EABEF19ECF474325EB254
:1006B000153E2EAE9015B8F268332DB03F3D40B1D7
:1006C000121187F053342EAE423CBEB47C0C58EE6F
:1006D000373561AC213BA6B8D6072BEC1236C8AA39
:1006E000DB39F0BC240302EAE53663A9713897C10F
:1006F0006EFEDCE7B03734A8E53695C6BAF9BAE540
:1007000071383BA73735E2CB0FF59CE32B3978A640
:10071000683378D173F082E1DB39EDA579314ED7BA
:10072000EDEB6DDF823A99A56C2F5DDD82E75DDD33
:10073000213B7EA5412D9CE33AE352DBB63B99A5D4
:10074000FB2A02EA19DF4DD9423CEDA59A2887F031
:1007500026DB4ED7C53C78A6202621F766D756D58E
:100760003F3D3BA78E23C7FDDFD363D3AF3D34A806
:10077000E720710494D078D1153E63A92B1E140B89
:100780008CCD94CF723EC8AA5D1BA811C9CAB7CD43
:10079000C53E61AC7E18241850C8E2CB0F3F2EAE88
:1007A00090157E1E25C615CA4F3F2DB09412AE245B
:1007B0004AC451C8853F5EB28D0FAA2AC1C295C6F0
:1007C000B13FBEB47C0C6C308EC1E2C4D43F4DB797
:1007D0006409EB35B1C038C3EC3F09BA46061E3B8D
:1007E0002CC097C1FB3FF0BC2403000009488047A0
:1007F00009480047FEE7FEE7FEE7FEE7FEE7FEE703
:10080000FEE7FEE7FEE7FEE704480549054A064B1A
:10081000704700005D1D00083101000878130020BA
:1008200078190020781500207815002070474FF0C7
:10083000000200B5134694469646203922BFA0E830
:100840000C50A0E80C50B1F12001BFF4F7AF09073C
:1008500028BFA0E80C5048BF0CC05DF804EB89002D
:1008600028BF40F8042B08BF704748BF20F8022B70
:1008700011F0804F18BF00F8012B70477047704788
:100880007047704710B500F009F8006810BD10B54A
:10089000044600F003F8046010BD000000487047F3
:1008A0001413002000487047141300207546FFF70A
:1008B000F9FFAE4605006946534620F0070085461D
:1008C00018B020B5FFF7A0FFBDE820404FF00006AC
:1008D0004FF000074FF000084FF0000B21F0070128
:1008E000AC46ACE8C009ACE8C009ACE8C009ACE86B
:1008F000C0098D4670470446AFF300802046FFF7DD
:100900007EFC21B1826842F00102826003E08268CD
:1009100022F001028260704721B1826842F4807245
:10092000826003E0826822F4807282607047000077
:1009300010B504461248844208D10121401501F047
:100940000BF90021601501F007F917E00D4884420A
:1009500008D10121001501F0FFF80021201501F058
:10096000FBF80BE00848844208D10121C80301F0DC
:10097000F3F800214FF4004001F0EEF810BD000044
:100980000024014000280140003C014021B1826860
:1009900042F48012826003E0826822F48012826056
:1009A0007047014600208A6802F004020AB1012063
:1009B00000E000207047014600208A6802F008022B
:1009C0000AB1012000E000207047000030B5024667
:1009D0000020002350680F4C20400D790C6844EA39
:1009E00005242043506090680B4C2040D1E902540C
:1009F0002C434D7944EA450420439060D06A20F4AA
:100A000070000C7C641EE4B2234340EA0350D062C1
:100A100030BD0000FFFEF0FFFDF7F1FFF0B504462A
:100A20000D4600200021092D11DDE068A5F10A0620
:100A300006EB4607072606FA07F18843A5F10A06E2
:100A400006EB460603FA06F10843E0600CE0206975
:100A500005EB4507072606FA07F1884305EB45062F
:100A600003FA06F108432061072A0FDA606B561E6D
:100A700006EB86071F2606FA07F18843561E06EB8B
:100A8000860605FA06F10843606322E00D2A0FDAB4
:100A9000206BD61F06EB86071F2606FA07F1884350
:100AA000D61F06EB860605FA06F10843206310E020
:100AB000E06AA2F10D0606EB86071F2606FA07F18B
:100AC0008843A2F10D0606EB860605FA06F10843F7
:100AD000E062F0BD816841F0080181607047816883
:100AE00041F004018160704700B585B001212648BE
:100AF00000F066FA0121480201F01EF82348FFF7D2
:100B000017FF4FF4004000F0DBFF02230122062113
:100B10001E48FFF783FF00231A4606211A4800F0FB
:100B200020FA00208DF8050003904FF40020029079
:100B30000020009001208DF8100000208DF80400A6
:100B400069461248FFF742FF01211048FFF7D9FE1E
:100B500001210E48FFF7E0FE0C48FFF7BBFF00BF86
:100B60000A48FFF728FF0028FAD10848FFF7B7FF27
:100B700000BF0648FFF715FF0028FAD101210348FE
:100B8000FFF704FF05B000BD00080140002401404C
:100B900039B1084A1268012383401A43054B1A6091
:100BA00006E0044A1268012383409A43014B1A600D
:100BB000704700000074004041B1094A12684FF4C8
:100BC000805383401A43064B1A6007E0044A1268B8
:100BD0004FF4805383409A43014B1A6070470000E2
:100BE0000074004010B50121480700F095FF002176
:100BF0004FF0005000F090FF10BD000030B5002213
:100C000000230A4C226840F6FE748440A243D1E9D6
:100C100000452C438D682C43CD6844EA050303FA54
:100C200000F42243014C226030BD000000740040FB
:100C30000021016041608160C160704721B102689C
:100C400042F00102026004E002684FF6FE731A40AF
:100C50000260704701684FF6FE721140016000218A
:100C6000016041608160C1604B49884208D14A49B6
:100C70000839496841F00F01474A083A51608AE053
:100C800045491431884208D143490839496841F03F
:100C9000F001414A083A51607DE03F4928318842DD
:100CA00008D13D490839496841F470613A4A083A27
:100CB000516070E038493C31884208D136490839E2
:100CC000496841F47041344A083A516063E032495E
:100CD0005031884208D130490839496841F47021BF
:100CE0002D4A083A516056E02B496431884208D1B8
:100CF00029490839496841F47001274A083A516086
:100D000049E025497831884208D1234908394968A2
:100D100041F07061204A083A51603CE01F49884226
:100D200006D1011F096841F00F01021F116032E076
:100D30001A491431884208D11849091F096841F03D
:100D4000F001164A121F116025E01449283188422B
:100D500008D11249091F096841F470610F4A121F36
:100D6000116018E00D493C31884208D10B49091F38
:100D7000096841F47041094A121F11600BE00749EC
:100D80005031884207D10549091F096841F4702193
:100D9000024A121F11607047080002400804024016
:100DA00010B50022026847F6F0739A430C6A8B680C
:100DB00023430C6923434C6923438C692343CC6947
:100DC00023434C6A23438C6A23431A430260CB6853
:100DD00043600B6883604B68C36010BD00210160F5
:100DE00041608160C160016141618161C1610162F5
:100DF00041628162704700001FB50121124800F076
:100E0000DFF800231A4604210F4800F0AAF8012158
:100E1000480700F071FEFFF7E5FE6846FFF708FFA0
:100E200000200290022003900420009000200190F6
:100E30006946FFF7E3FE01210020FFF7A9FE01212B
:100E40000020FFF7B9FE1FBD000801402DE9F04169
:100E5000024600250026002000230024002791F8E8
:100E600003C00CF00F0591F803C00CF0100CBCF19E
:100E7000000F03D091F802C04CEA050591F800C0BC
:100E8000BCF1000F31D0146800202BE04FF0010CB2
:100E90000CFA00F3B1F800C00CEA03069E4220D120
:100EA00083004FF00F0C0CFA03F7BC4305FA03FC68
:100EB0004CEA040491F803C0BCF1280F06D14FF0AE
:100EC000010C0CFA00FCC2F814C00AE091F803C04F
:100ED000BCF1480F05D14FF0010C0CFA00FCC2F830
:100EE00010C0401C0828D1D31460B1F800C0BCF178
:100EF000FF0F34DD546800202EE000F1080C4FF0A5
:100F0000010808FA0CF3B1F800C00CEA03069E428F
:100F100021D183004FF00F0C0CFA03F7BC4305FA04
:100F200003FC4CEA040491F803C0BCF1280F05D17E
:100F300000F1080C08FA0CF8C2F8148091F803C00C
:100F4000BCF1480F07D100F1080C4FF0010808FA76
:100F50000CF8C2F81080401C0828CED35460BDE8BD
:100F6000F081F0B5044615460F2901D90020F0BDE7
:100F700083B9022D05D1E06801268E40B043E060C0
:100F800008E0032D06D125F00105E06801268E401A
:100F90003043E060082901D2224601E00839221DD1
:100FA00010688F000F26BE40B043106043EA8500F2
:100FB0008E00B0401668304310600120D7E7000073
:100FC000002945D0454A904206D1454A926942F0EF
:100FD0000402434B9A6180E0424A904206D1404A63
:100FE000926942F008023E4B9A6176E03E4A904296
:100FF00006D13B4A926942F01002394B9A616CE08B
:101000003A4A904206D1364A926942F02002344B65
:101010009A6162E0364A904206D1314A926942F0C2
:1010200040022F4B9A6158E0324A904206D12C4A36
:10103000926942F080022A4B9A614EE02E4A904219
:101040004BD1274A926942F48072254B9A6144E061
:10105000224A904206D1224A926922F00402204B91
:101060009A613AE01F4A904206D11D4A926922F0E5
:1010700008021B4B9A6130E01B4A904206D1184A85
:10108000926922F01002164B9A6126E0174A9042AC
:1010900006D1134A926922F02002114B9A611CE09A
:1010A000134A904206D10E4A926922F040020C4B3C
:1010B0009A6112E00F4A904206D1094A926922F0E1
:1010C0008002074B9A6108E00B4A904205D1044A1E
:1010D000926922F48072024B9A61704700080140C5
:1010E00000100240000C01400010014000140140BB
:1010F00000180140001C0140002001400246002071
:1011000093680B400BB1012000E0002070470161A3
:10111000704700002DE9FE4F002439E01E4931F8E8
:10112000241008B203F064FB83461B4951F82410D5
:10113000081403F05DFB02900299084603F070FB6F
:1011400059460190584603F06BFB0090019903F05B
:10115000D1FA824603F0A2FA074602F081FA054668
:1011600002F000FD814634B9484603F025FB0B49E7
:1011700041F824000AE04FF08041484603F050FB5C
:10118000054603F019FB054941F82400601C84B2B0
:10119000802CC3DBBDE8FE8F140F0020141100204B
:1011A00070B502460024002500230020958A138B89
:1011B0001B0445EA030626F07F4404EA01068E423A
:1011C00001D1012000E0002070BD21B1028842F071
:1011D0000102028004E002884FF6FE731A4002808A
:1011E0007047000010B504460B48844209D1012124
:1011F000480500F091FC00214FF4001000F08CFC39
:1012000008E00121880500F087FC00214FF48000F0
:1012100000F082FC10BD00000054004021B10288A3
:1012200042F48072028004E002884FF6FF631A40A5
:101230000280704721B1028842F40072028004E00B
:1012400002884FF6FF531A40028070472DE9F043A1
:1012500085B004460D460026B1460427DFF8CC8051
:10126000A6884FF6C0700640684600F085FCDDF8A1
:1012700008802F48B8FBF0F01FFA80F946EA09060B
:10128000A68020884FF6FE7108402080002629495C
:10129000286888420CD828684000B8FBF0F087B274
:1012A000042F00DA04273E4309F10100208427E0DF
:1012B000E8884BF6FF71884206D1286800EB4000B1
:1012C000B8FBF0F087B209E0286800EBC00101EB41
:1012D0000010B8FBF0F087B247F48047C7F30B006B
:1012E00008B947F0010747F4004006434FF49670F1
:1012F00009FB00F04FF47A7190FBF1F0401C208460
:10130000A683208840F00100208026884FF6F53023
:101310000640A8886989084306432680A889298948
:101320000843208105B0BDE8F083000000127A0078
:1013300040420F00A086010012B141F0010102E01D
:101340004FF6FE73194001827047018270470146D3
:101350000020704708B50121442000F0EDFB182063
:10136000ADF8000048208DF8030069460648FFF7F5
:101370006DFD0120ADF8000028208DF803006946BE
:101380000248FFF763FD08BD001801400008014056
:1013900010B5044614B10120234908702248007892
:1013A00058B310212148FFF7A9FE50B108211F486A
:1013B000FFF7A4FE28B101211D48FFF79FFE012879
:1013C0001BD10A2001F0C4FB00201749087010212E
:1013D0001648FFF793FE08B9012010BD08211348F5
:1013E000FFF78CFE08B90220F7E701211048FFF74C
:1013F00085FE012815D10320EFE710210B48FFF7E8
:101400007DFE01280DD108210848FFF777FE01284D
:1014100007D101210648FFF771FE10B901200249EA
:1014200008700020D9E700000000002000180140EB
:101430000008014008B50121482000F07DFB202074
:10144000ADF8000010208DF8030003208DF8020095
:1014500069460948FFF7FAFC20210748FFF757FEC5
:101460002020ADF8000069460448FFF7EFFC20217A
:101470000248FFF74CFE08BD000C01400018014077
:10148000F0B58BB007460C4615461E4601210846AE
:1014900000F022FB6846FFF7A1FC3846FFF7DAFBB5
:1014A0000396002002900A9001954FF48060079007
:1014B00080200590202008900094C0000690002015
:1014C00004904FF40050099069463846FFF768FCD5
:1014D00001213846FFF7B2FB0BB0F0BDF0B58BB081
:1014E00007460C4615461E460121022000F0F4FA7C
:1014F0006846FFF773FC3846FFF7ACFB03961020F5
:10150000029000200A9001954FF48060079080209F
:101510000590202008900094C000069000200490C0
:10152000099069463846FFF73BFC01213846FFF732
:1015300085FB0BB0F0BD000070B5002100230F2229
:10154000C47804B3154C246804F4E064C4F5E06482
:10155000210AC1F10403CA40447804FA03F18478F3
:101560001440214309010E4C0678A155047804F07B
:101570001F050124AC4005786D11AD0005F1E02593
:10158000C5F8004109E0047804F01F050124AC40CF
:10159000044D0678761145F8264070BD0CED00E04C
:1015A00000E400E080E100E002490143024A1160EA
:1015B000704700000000FA050CED00E010B50020B7
:1015C00000F06CF810BD2DE9F05F06460F4690461E
:1015D0001C46DDF828A04FF0000BE11704EB517119
:1015E000C910A4EBC10131B92046E11704EB5171D8
:1015F000C1F3C70506E02046E11704EB5171C9109D
:10160000491CCDB23D4614E02946304600F01EF993
:10161000B1460AE059460BF1010B1AF8010000F03F
:1016200045FE09F1010000F0FF09C145F2DB681C2D
:10163000C5B2A542E8DBBDE8F09F0000F0B5144656
:1016400000267F2801DC3F2900DDF0BD0B46CF17C7
:1016500001EB5777C7F3C702CF1701EB5777FF109E
:10166000A1EBC707FDB20123AB40DEB24CB10A4B80
:1016700003EBC0039B5C3343074F07EBC007BB542E
:1016800008E0054B03EBC0039B5CB343024F07EB41
:10169000C007BB5400BFD8E74C02002070B5064617
:1016A000002419E004F1B001C8B200F0F8FD0020F8
:1016B00000F0F5FD102000F0F2FD002508E03046B6
:1016C00000F0F4FD064800EBC5000655681CC5B2E5
:1016D000802DF4DB601CC4B2082CE3DB70BD00007D
:1016E0004C02002000B585B00121082000F024FA4A
:1016F000C020ADF8100003208DF812001C208DF8DA
:10170000130004A93D48FFF7A1FB0121480500F0A3
:10171000F3F93B48FFF766FD0020ADF804004BF6F7
:10172000FF70ADF806007720ADF808004FF4806038
:10173000ADF80A000001ADF80C003248009069468F
:101740002F48FFF783FD01212D48FFF73EFD4FF4A1
:101750007A7001F0FDF9AE2000F0A1FD002000F04C
:101760009EFD102000F09BFD402000F098FDB02071
:1017700000F095FD812000F092FDFF2000F08FFD2C
:10178000A12000F08CFDA62000F089FDA82000F02B
:1017900086FD3F2000F083FDC82000F080FDD320AF
:1017A00000F07DFD002000F07AFDD52000F077FDEF
:1017B000802000F074FDD82000F071FD052000F0BD
:1017C0006EFDD92000F06BFDF12000F068FDDA20FD
:1017D00000F065FD122000F062FDDB2000F05FFDEF
:1017E000302000F05CFD8D2000F059FD142000F049
:1017F00056FDAF2000F053FD05B000BD000C0140C8
:1018000000540040801A060070B5002418E004F16E
:10181000B001C8B200F043FD002000F040FD1020F0
:1018200000F03DFD002507E0074901EBC501085D1B
:1018300000F03CFD681CC5B2802DF5DB601CC4B215
:10184000082CE4DB70BD00004C02002070B504469B
:101850000D4605F1B001C8B200F021FD102141EAAA
:10186000141000F01CFD04F00F0141F0010000F025
:1018700016FD70BD2DE9F84F80460F4616461C46F2
:10188000BA462046E31704EB5373DB1021464FEAB8
:10189000E47C04EB5C7C4FEAEC0CA4EBCC0CBCF1DC
:1018A000000F02D04FF0010C01E04FF0000C634438
:1018B000224604EBD27C4FEA6C0C03FB0CF303F0E2
:1018C000FF0BA6F12000C6B200254EE00C2C07D17C
:1018D00006EB4600274901EB8000405D009013E0D5
:1018E000102C05D1244800EB0610405D00900BE061
:1018F000182C07D106EBC600204901EB8000405DA3
:10190000009001E0BDE8F88F4FF0000927E0009853
:1019100000F0800028B1394640460A9AFFF78EFE53
:1019200009E00A9808B9012000E000200246394683
:101930004046FFF783FE00984006000E0090781C9A
:10194000C7B2A7EB0A00A04205D1574608F1010033
:1019500000F0FF0806E009F1010000F0FF09B9F10D
:10196000080FD4DB00BF681CC5B25D45AEDB00BF0D
:10197000C8E70000924B000806500008F655000822
:101980002DE9FF4F81B0074691461E460E9D4FF050
:10199000000A002439E0301B401EC1B20A2001F0C9
:1019A0005DFBB9FBF0F00A21B0FBF1F201FB12087C
:1019B000BAF1000F16D1701EA04213DDB8F1000F6E
:1019C0000ED10120AB4605EBDB71491001FB047120
:1019D0000090C8B22B4620220299FFF74BFF12E07D
:1019E0004FF0010A0120AB4605EBDB71491001FB0A
:1019F00004710090C8B208F13001CAB22B460299B6
:101A0000FFF738FF00BF601CC4B2B442C3DB05B0AF
:101A1000BDE8F08F2DE9F84306460F4615461C46F3
:101A2000DDF8208021E004EBD4714910C1F1800180
:101A3000B14202DA00263819C7B2C4F14000B842F8
:101A400004DA002006460746FFF7B8FDCDF800800F
:101A50002A78234639463046FFF70CFF204604EB30
:101A6000D07106EB6101CEB26D1C28787E2802DCB5
:101A700028782028D7DABDE8F883000070B5002464
:101A800018E004F1B001C8B200F009FC002000F039
:101A900006FC102000F003FC002507E0074901EBDD
:101AA000C501085D00F002FC681CC5B2802DF5DBA5
:101AB000601CC4B2022CE4DB70BD00004C020020AC
:101AC00001460020034A506820F44040084350601B
:101AD000704700000010024029B1064A52690243D3
:101AE000044B5A6104E0034A52698243014B5A6134
:101AF000704700000010024029B1064AD269024333
:101B0000044BDA6104E0034AD2698243014BDA6193
:101B1000704700000010024029B1064A12690243D2
:101B2000044B1A6104E0034A12698243014B1A61B3
:101B3000704700000010024029B1064A9269024332
:101B4000044B9A6104E0034A92698243014B9A6113
:101B5000704700000010024029B1064AD2680243D3
:101B6000044BDA6004E0034AD2688243014BDA6036
:101B7000704700000010024030B500210022002410
:101B800000232D4D6D6805F00C0121B1042905D00D
:101B9000082923D105E0294D056022E0274D056085
:101BA0001FE0254D6D6805F47012234D6D6805F436
:101BB0008034022505EB92421CB9214D5543056046
:101BC0000BE01D4D6D6805F400351DB11C4D5543EE
:101BD000056002E0194D5543056002E0174D0560B0
:101BE00000BF00BF144D6D6805F0F0010909154DE7
:101BF0006B5C0568DD4045600F4D6D6805F4E06184
:101C0000090A104D6B5C4568DD4085600A4D6D68C2
:101C100005F46051C90A0B4D6B5C4568DD40C56039
:101C2000054D6D6805F44041890B074D6B5CC56837
:101C3000B5FBF3F5056130BD0010024000127A00DB
:101C400000093D00240200203402002010B500F0FD
:101C500001F810BD0CB500200190009033480068D9
:101C600040F480303149086000BF3048006800F41B
:101C7000003000900198401C0190009818B901981C
:101C8000B0F5A06FF1D12948006800F4003010B120
:101C90000120009001E0002000900098012843D12D
:101CA0002348006840F01000214908600846006899
:101CB00020F0030008600846006840F00200086059
:101CC0001A48406819494860084640684860084614
:101CD000406840F4806048600846406820F47C100A
:101CE00048600846406840F4E810486008460068CC
:101CF00040F08070086000BF0C48006800F0007081
:101D00000028F9D00948406820F0030007494860DE
:101D10000846406840F00200486000BF0348406841
:101D200000F00C000828F9D10CBD000000100240A2
:101D300000200240042808D14FF0E021096941F059
:101D400004014FF0E022116107E04FF0E021096942
:101D500021F004014FF0E0221161704710B51348E3
:101D6000006840F0010011490860084640681049C9
:101D700008400E494860084600680E4908400B4973
:101D800008600846006820F4802008600846406823
:101D900020F4FE0048604FF41F008860FFF756FFF4
:101DA0004FF000600449086010BD000000100240C0
:101DB0000000FFF8FFFFF6FE08ED00E03EB5054627
:101DC0000C4601210E48FFF7FBF801210220FFF726
:101DD00093FE0C4800F084F80020ADF80600ADF842
:101DE0000200ADF80450ADF800408DF808006946D7
:101DF000044800F08FF92021024800F082F93EBD2E
:101E0000000801400004004010B516E00E480088AC
:101E1000401C0D49088008460088B0F57A7F08DD2F
:101E20000A480068C0430A49C1F8940100200649E5
:101E300008800121074800F043F80121054800F01F
:101E400043F90028E2D110BD020000209481214214
:101E500000802142001000407FB505460C4601215C
:101E60001020FFF749FE154800F03AF80020ADF8C1
:101E70000A00ADF80600ADF80850ADF804408DF842
:101E80000C0001A90D4800F045F9012211460B484C
:101E900000F02BF936208DF8000002208DF80100AB
:101EA0008DF8020001208DF803006846FFF744FB1F
:101EB0002021024800F025F97FBD000000100040FD
:101EC000CA430282704721B1028842F001020280B7
:101ED00004E002884FF6FE731A400280704700004B
:101EE00010B504466848844208D10121C014FFF7A8
:101EF00033FE0021E014FFF72FFEC4E0B4F1804F61
:101F000008D101210846FFF707FE00210120FFF755
:101F100003FEB8E05D48844208D101210220FFF7AA
:101F2000FBFD00210220FFF7F7FDACE0584884429A
:101F300008D101210420FFF7EFFD00210420FFF765
:101F4000EBFDA0E05348844208D101210820FFF7AF
:101F5000E3FD00210820FFF7DFFD94E04E488442B6
:101F600008D101211020FFF7D7FD00211020FFF735
:101F7000D3FD88E04948844208D101212020FFF7A1
:101F8000CBFD00212020FFF7C7FD7CE044488442C0
:101F900008D101214014FFF7DFFD00216014FFF795
:101FA000DBFD70E03F48844209D10121C804FFF7FE
:101FB000D3FD00214FF40020FFF7CEFD63E03A4847
:101FC000844209D101210805FFF7C6FD00214FF425
:101FD0008010FFF7C1FD56E03448844209D1012149
:101FE0004805FFF7B9FD00214FF40010FFF7B4FDDD
:101FF00049E02F48844208D101214020FFF78CFDA1
:1020000000214020FFF788FD3DE02A48844208D1A6
:1020100001218020FFF780FD00218020FFF77CFD5B
:1020200031E02548844208D101218015FFF774FD75
:102030000021A015FFF770FD25E02048844209D15A
:1020400001210804FFF788FD00214FF48030FFF7DD
:1020500083FD18E01A48844209D101214804FFF7A2
:102060007BFD00214FF40030FFF776FD0BE01548B3
:10207000844208D101218804FFF76EFD00214FF44E
:102080008020FFF769FD10BD002C014000040040D6
:1020900000080040000C0040001000400014004008
:1020A00000340140004C0140005001400054014008
:1020B00000180040001C004000200040004001408B
:1020C000004401400048014030B502460020002392
:1020D0000024158A05EA0103958905EA010413B174
:1020E0000CB1012000E0002030BD1AB183890B4300
:1020F000838102E083898B438381704701858282DB
:10210000704782884FF68F731A40828082880A4314
:1021100082807047002202881D4B98420ED01D4BD2
:1021200098420BD0B0F1804F08D01B4B984205D09D
:102130001A4B984202D01A4B984204D14FF68F7333
:102140001A404B881A43174B984207D0164B9842B7
:1021500004D04FF6FF431A40CB881A4302808B8885
:1021600083850B8803850A4B98420BD0094B984214
:1021700008D00E4B984205D00D4B984202D00D4B23
:10218000984201D10B7A03860123838270470000B5
:10219000002C0140003401400004004000080040D1
:1021A000000C0040001000400014004000400140BE
:1021B000004401400048014010B540F225511D483F
:1021C00000F03EF810B31B4800F064F8C4B21A489F
:1021D000008800F40040C8B91748008800F4804027
:1021E00060B10A2C03D000201349088020E0124877
:1021F000008840F400401049088019E00D2C06D1F9
:102200000D48008840F480400B49088010E00A48DF
:102210000088C0F30D0009490C5407480088401C91
:102220000549088008460088C72801DD002008808D
:1022300010BD000000380140780000204C0600204E
:1022400070B50246002400230025002040F66A16DF
:10225000B14200D100BFC1F3421501F01F030126B6
:1022600006FA03F3012D02D19689334006E0022DD0
:1022700002D1168A334001E0968A33400C120126BF
:1022800006FA04F41688344013B10CB1012000E0C2
:10229000002070BD01468888C0F30800704710B563
:1022A00004462146002000F009F810BD10B5044690
:1022B0002146402000F002F810BD000070B5044631
:1022C0000D4601213548FEF7A9FF4FF496703449B9
:1022D000086009E032490868411E314A116018B9A6
:1022E0000020FFF734F870BD2E492C48FEF758FF48
:1022F0000028EFD0002278212848FFF71DF84FF47E
:1023000096702749086009E025490868411E244A5B
:10231000116018B90120FFF71AF8E4E722491F48B5
:10232000FEF73EFF0028EFD021461C48FFF70DF8CE
:102330004FF496701A49086009E019490868411E6F
:10234000174A116018B90220FFF701F8CBE71649C8
:10235000891C1248FEF724FF0028EED029460F48BA
:10236000FEF7F3FF4FF496700D49086009E00C4941
:102370000868411E0A4A116018B90320FEF7E7FFFA
:10238000B1E70949891C0548FEF70AFF0028EED08D
:1023900001210248FEF74EFF0120A4E7005400404F
:1023A0006C0000200100030082000700490050EA91
:1023B000C12018BF04204A0D18BF40F0010040F2B0
:1023C000FF72B2EB515F08BF40F00200012808BF66
:1023D000052070472DE9F74F144694B00021C4E959
:1023E00002111599079121F00045C9498D4206DC7B
:1023F0001599C4E9000117B00020BDE8F08FC54968
:10240000DFF814A3A9423CDD0799C44E0029C44F4C
:10241000C44A1599534619DD02F056F8554506D0C1
:10242000C14AC24B02F050F8C4E900010AE04FF083
:10243000D352BE4B02F048F832463B4602F044F815
:10244000C4E9000117B00120BDE8F08F01F0BCFB2A
:10245000554506D0B44AB54B01F0B6FBC4E90001BE
:102460000AE04FF0D352B14B01F0AEFB32463B468F
:1024700001F0AAFBC4E9000117B04FF0FF30BDE83E
:10248000F08FAB49A942159978DB21F000418346D2
:102490008846A84AA84B01F027FE0022A74B01F06E
:1024A00093FB01F099FD099001F0F3FD06460F46FC
:1024B0009C4A534601F018FE43465A4601F012FF6B
:1024C00080468A46984A994B3046394601F00CFEC0
:1024D0002A0D01250B924246534601F003FF032DBE
:1024E000C4E9000139D00B98C1F30A51401A05EB39
:1024F00045111139814230DA9148C346784400EBE6
:102500000510CDF80CA00C90D0E9002330463946D8
:1025100001F0EAFD02460B460491069058460399E5
:1025200001F0D2FF80468A4602460B465846039980
:1025300001F0CAFF049B069A01F0C6FF83460C987F
:1025400003913946D0E90223304601F0CDFD5A46C9
:10255000039B01F0B9FF6D1CBDE707980028A2BFDF
:10256000099817B0BDE8F08F616881F000416160A3
:10257000099817B04042BDE8F08FFFE784461598F0
:10258000C1F31301C0F30A50A0F2F5304FEA60180E
:1025900000F01F06C6F1200013900020069007905F
:1025A00041F4801E05206D4676B1664A08EB0001B5
:1025B0007A4452F8213002EB8101B3404A68139902
:1025C00022FA01F1194305E05F4908EB0002794462
:1025D00051F82210A1FB0E27A1FB0C131A449A42BA
:1025E00034BF0123002303EB070A05EB8003D3E983
:1025F00001B70F448F4234BF0121002193448B4423
:1026000011B1934502D903E0934501D2012100E0C5
:102610000021C3E901B7514445F82010011EA0F183
:102620000100C1DC0298059F00F10050800F12905C
:102630000298DDE90356800001F02BFD8346284611
:102640000D9101F03DFD6FF01D0202F05CFACDE945
:102650000E01304601F034FD6FF03D0202F053FAF6
:1026600080468A46384601F02BFD6FF05D0202F08D
:102670004AFA074642465346119101F0A5FADDE9B0
:102680000E2301F0A1FA5A460D9B01F09DFA002598
:102690000E465A4628460D9B01F016FFDDE90E2333
:1026A00001F012FF4246534601F00EFF3A46119BDD
:1026B00001F018FEDFF898A0244A534601F014FDFB
:1026C00007468846234A244B3146284601F00CFD34
:1026D0003A46434601F078FA074688464FF0A8424A
:1026E00053463146284601F0FFFC3A46434601F086
:1026F0006BFA159A12F0004F04D0129A81F0004143
:1027000052421292C4E90001129817B0BDE8F08F4E
:10271000FB21E93F7CD90240FB21F93F7370032E76
:102720008A19A33B000040543163621A61B4D03D62
:10273000FB21394183C8C96D305FE43F0000E03FB1
:10274000883E0000043E0000E63D0000182D445481
:10275000FB21F93D3326A611460B113C2DE9FF4D17
:1027600021F0004807460C46B8F1795F08DA01F01D
:1027700033FC002801BF0020324904B0BDE8F08DD1
:102780003A4623461046194601F0AEFC054602467D
:102790002D480E460B460621784400F05DF82A4687
:1027A000334601F0A1FCDDE9022382468B46384620
:1027B000214601F099FC04460F4652465B462846E6
:1027C000314601F091FC22463B4601F07DFE074672
:1027D0008A464FF0FF322846314602F094F91B4AF0
:1027E00090450ADA3A46534601F06EFE04B00022E4
:1027F000BDE8F04D134B01F075BD154A4245A8BF29
:10280000A8F500154FF00004B8BF124D22462B4624
:1028100001F05AFE0646884622462B46002009490A
:1028200001F052FE04460D463A46534630464146B4
:1028300001F04AFE04B022462B46BDE8F04D01F0FF
:1028400051BD00000000F03FBC3B00003333D33FDC
:102850000000E93F0000D23F2DE9F0414F1E00EBA0
:10286000C7010446D1E9000115461E4637F00602AD
:102870000DD02A46334601F037FC7F1E04EBC70318
:10288000D3E9002301F0A0F937F00602F1D1022FBD
:1028900025D0042F13D0062F18BFBDE8F0812A469B
:1028A000334601F021FCD4E90A2301F08DF92A46D0
:1028B000334601F019FCD4E9082301F085F92A46D2
:1028C000334601F011FCD4E9062301F07DF92A46D4
:1028D000334601F009FCD4E9042301F075F92A46D6
:1028E000334601F001FCD4E9022301F06DF92A46D8
:1028F000334601F0F9FBD4E90023BDE8F04101F0D3
:1029000063B900002DE9FF4D054621F0004084B079
:102910000C46B0F1795F0BDA2846FFF747FD042833
:1029200008BF00F06FF8284608B02146BDE8F08DDA
:102930002A460B46104601F0D7FB06460F462A46AC
:10294000234601F0D1FB804626488A4632463B4664
:1029500005217844FFF780FF83461098029160B309
:10296000214A224B4046514601F0BEFBCDE9000111
:102970005A4640465146029B01F0B6FB82468846C5
:10298000DDE906014FF0FF3202F0BDF85246434642
:1029900001F09AFD32463B4601F0A6FBDDE9062335
:1029A00001F092FDDDE9002301F08EFD08B02A461A
:1029B0002346BDE8F04D01F095BC0B465A46304623
:1029C000394601F091FB084A084B01F0FDF84246F8
:1029D000534601F089FB08B02A462346BDE8F04D76
:1029E00001F0F2B8FA3A0000495555555555C5BFA2
:1029F000012202F088B8002213461046114601F069
:102A000093B90000024A0020110702F07CB80000D0
:102A100001FDFFFF00BF704710B500248021104862
:102A2000FDF705FF80210F48FDF701FF4FF480718E
:102A30000D48FDF7FCFE00BF07E00C4830F814001D
:102A4000094941F82400601C84B2FF2CF5DD4FF4E5
:102A5000807205490348FDF7D9FBFEF75BFB10BD0B
:102A600014110020140F0020140B00201409002062
:102A700000B5244B21F0004287B09A42DCBF00220F
:102A8000134629DD204B9A4208D140B94FF001008E
:102A9000FDF7FDFEFFF7AFFF07B000BD03DBFFF75B
:102AA000A7FF07B000BD02AAFFF794FC10F00301D6
:102AB00004BF0DF1080C9CE80F000DD00120012986
:102AC0000ED0022914D00DF1080C00909CE80F00E4
:102AD000FFF718FF07B000BDFFF740FE07B000BDCD
:102AE0000DF1080C00909CE80F00FFF70BFF05E0CC
:102AF0000DF1080C9CE80F00FFF730FE07B081F0E5
:102B0000004100BDFB21E93F0000F07F10B56FF0F0
:102B10000400FFF70FF90A4800680A49B0FBF1F01A
:102B2000094908700846007800EB4001C1EBC0106D
:102B30004FF6FF7101EAC0000449088010BD000093
:102B40003802002000127A0070000020720000207D
:102B50000146114A12884A434FF0E0235A6100228D
:102B60009A611A46126942F001021A6100BF4FF0E1
:102B7000E022106900F001021AB100F48032002A4C
:102B8000F5D04FF0E022126922F001024FF0E0236D
:102B90001A6100229A6170477200002010B501206E
:102BA0003549087001213548FFF78DF95BE00020B9
:102BB000FEF7EEFB0446002C52D031480068C043BB
:102BC0003049C1F89401012C04D0022C1CD0032CF4
:102BD00045D131E02C48008864302B4908800846F4
:102BE0000088B0F5803F02DB4FF6FF7001E0264819
:102BF00000882549088008460088401E81B20022CE
:102C00001E48FFF77BFA2AE01F48008864381E49F7
:102C1000088008460088012801DA012001E01A48EE
:102C200000881949088008460088401E81B20022A9
:102C30001248FFF763FA12E004200F4908701348A6
:102C40001349097800EBC100C078114908700F489A
:102C5000097800EBC10040680E49086000BF00BF62
:102C60000D4800F081F90448007801289FD0002128
:102C70000248FFF728F910BD1D02002000040040A3
:102C800094012342000023429E010020A401002061
:102C90009C010020200200201409002070B5044689
:102CA0000D4629462046FFF789F8FDF71DFF4FF432
:102CB0008073034A03490448FEF7E2FB70BD00003D
:102CC000140900204C2401400800024010B50220E5
:102CD0002C49087050E00020FEF75AFB0446002CF7
:102CE00047D029480068C0432849C1F89401012C05
:102CF00004D0022C14D0032C35D121E024480088C4
:102D000020302349088008460088B0F5803F02DB68
:102D10004FF6FF7001E01E4800881D49088022E040
:102D20001B48008820381A490880084600888028F7
:102D300001DA802001E0164800881549088012E079
:102D400004201049087013481349097800EBC100AA
:102D5000C078114908700F48097800EBC10040683D
:102D60000E49086000BF00BF40F26711632000F009
:102D700081F90B4800F0F8F8024800780228AAD040
:102D800010BD00001D0200209401234200002342D8
:102D900016020020A40100209C0100202002002037
:102DA000140700202DE9F843002400270026032003
:102DB0005D49087000205D490870AEE00020FEF714
:102DC000E7FA8046B8F1000F7AD00027584800682B
:102DD000C0435849C1F89401B8F1010F2FD0B8F1A0
:102DE000020F03D0B8F1030F67D153E00A2E01DAC6
:102DF0000A2000E030460646A6F10A0086B200240A
:102E00001AE0002514E00C20F319DFF82CC1009023
:102E10005CF8232004EB44039B06190EC5EB8513D5
:102E2000D8B20623FEF7ACFD781C87B2681C85B2C9
:102E3000022DE8DB601C84B2052CE2DB3DE006F1EC
:102E40000A0086B2762E01DD762000E03046064686
:102E5000FEF7B4FB00241AE0002514E00C20BB1997
:102E6000DFF8D4C000905CF8232004EB44039B06F9
:102E7000190EC5EB8513D8B20623FEF781FD781C29
:102E800087B2681C85B2022DE8DB601C84B2052C79
:102E9000E2DB12E004202449087028482849097818
:102EA00000EBC100C078264908702448097800EB7F
:102EB000C10040682349086000BF00BFFEF7A4FCC2
:102EC0001A48007848BBFFF7A7FD01201749087092
:102ED000FEF774FB01200C231BA200210090084682
:102EE000FEF798FD0C20052300901C4802880C2159
:102EF0000020FEF745FDFEF787FC4FF47A70FFF7E0
:102F000027FEFEF75BFB01200C2315A20021009099
:102F10000846FEF77FFDFEF777FC0348007803289C
:102F20003FF44CAFBDE8F8831D0200201C020020D6
:102F3000940123420000234214110020A401002028
:102F40009C010020200200204F4B2C6E6F772C74C8
:102F5000696D33207263633A000000009E01002017
:102F6000444154413A0000002DE9F0410546002457
:102F70000027FEF723FB00BF10E0E01935F8100032
:102F8000C0EB801040F6FF7190FBF1F086B2F1B219
:102F9000E0B20122FEF752FB601C84B2802CECDB15
:102FA000FEF732FCBDE8F08100F0C6FB4BE00020EC
:102FB000FEF7EEF90446002C42D02348007804289E
:102FC0000BD021480078012807D01F48007802283C
:102FD00003D01D480078032832D11C48006808B986
:102FE000012000E0002019490860012C0DD0022CBE
:102FF00002D0032C1BD111E015481649097800EBCB
:10300000C10040781349087011E01148114909784E
:1030100000EBC10080780F49087008E00C480D49AA
:10302000097800EBC100C0780A49087000BF00BFF2
:1030300007480849097800EBC10040680649086064
:10304000054800688047B2E71D0200209401234232
:10305000A40100209C0100202002002010B502469F
:10306000012000E050430B00A1F10104E1B2F9D1CD
:1030700010BD000070B504460D461548028815487D
:1030800001881548007800F095FB00210846FDF7FF
:103090007FFD00210846FDF78FFD00210F48FDF759
:1030A000CDFD00210E48FEF70EFFFDF7A5FE2946D7
:1030B0002046FEF7D1FE074803880A4A0A49074816
:1030C000FEF70CFA01210648FEF7FDFE70BD000078
:1030D00018020020160200201402002030040240D2
:1030E0000010004014070020087400402DE9F84F3C
:1030F000FEF764FA012010232CA200210090142076
:10310000FEF788FC2C48008800EB800080004821F6
:1031100090FBF1FB584600F0BCFF8046274A284B45
:1031200000F052FD064632460B460020254900F0CD
:10313000FBFD04460D462046294600F07DFF06466D
:103140000C2005233246102100901420FEF718FCB5
:1031500001200C232E22102100903220FEF78AFB42
:103160002046294600F068FF1FFA80FA504600F01A
:10317000A7FF064622462B4601F0B4F804460D464A
:103180000022114B2046294600F0AEFF064600F013
:1031900053FF80460C200323424610210090382024
:1031A000FEF7EEFBFEF730FBBDE8F88F414443200D
:1031B0006672653A487A3A009E0100205C8FC2F53B
:1031C000285C014080842E4100408F402DE9F84367
:1031D000FEF7F4F9012010232FA200210090142003
:1031E000FEF718FC012010232EA21946009014208F
:1031F000FEF710FC2E48008800F062FF06463246BB
:103200000B4600202B4900F08FFD04460D4620465A
:10321000294600F011FF06460C20052332462021E6
:1032200000901420FEF7ACFB01200C232E2220215D
:1032300000903220FEF71EFB2046294600F0FCFEDF
:103240001FFA80F8404600F03BFF064622462B4618
:1032500001F048F804460D460022174B2046294647
:1032600000F042FF064600F0E7FE81460C200323F3
:103270004A46202100903820FEF782FBFEF7C4FA70
:1032800001200E4908700E480088401E81B263205C
:10329000FFF7F0FEBDE8F883574156455F53494EAE
:1032A00045000000444143206672653A487A3A007E
:1032B0001602002000409F4000408F401402002072
:1032C000A001002008B50120102309A200210090D0
:1032D0001420FEF79FFBFEF7D1FB02200749087080
:1032E00007480088401E81B26320FFF7C3FE08BD77
:1032F000574156455F52414D5000000014020020D6
:10330000A001002008B50120102309A2002100908F
:103310001420FEF77FFBFEF7B1FB00200749087081
:1033200007480088401E81B26320FFF7A3FE08BD56
:10333000574156455F5351554152450014020020F4
:10334000A001002008B50120102309A2002100904F
:103350001420FEF75FFBFEF791FB0320084908707D
:1033600008480088401E81B26320FFF783FE08BD35
:10337000574156455F545249414E474C4500000065
:1033800014020020A001002008B50120102309A28A
:10339000002100901420FEF73DFBFEF76FFB042098
:1033A0000749087007480088401E81B26320FFF774
:1033B00061FE08BD574156455F4D5558000000005D
:1033C00014020020A00100202DE9FC5FFEF7F6F8B2
:1033D000012010232FA2002100901420FEF71AFBD9
:1033E0002F48008800EB80008000482190FBF1F01E
:1033F000009000F04EFE80462A4A2B4B00F0E4FB82
:1034000006460022294B00F06FFE824652460B46CC
:103410000020274900F088FC04460D462046294636
:1034200000F00AFE06460C200523324610210090CB
:103430001420FEF7A5FA01200C232E221021009063
:103440003220FEF717FA2046294600F0F5FD80B23B
:103450000190019800F034FE064622462B4600F00B
:1034600041FF04460D460022124B2046294600F03B
:103470003BFE074600F0E0FD06460C2003233246E3
:10348000102100903820FEF77BFAFEF7BDF9BDE869
:10349000FC9F0000414443206672653A487A3A0036
:1034A0009E0100205C8FC2F5285C01400000704046
:1034B00080842E4100408F4008B5FEF77FF8012040
:1034C00018230CA2194600901E20FEF7A3FA012033
:1034D0000C2309A2002100901E20FEF79BFA012078
:1034E0000C2308A2302100901E20FEF793FAFEF76D
:1034F0008BF908BD41444300555020203A444143D4
:1035000000000000444F574E3A4441540000000070
:1035100008B5FEF753F8012018230CA219460090B5
:103520001E20FEF777FA01200C2309A2002100904B
:103530001E20FEF76FFA01200C2308A23021009014
:103540001E20FEF767FAFEF75FF908BD44415400FC
:10355000555020203A41444300000000444F574E4C
:103560003A4441430000000008B5FEF727F8012067
:1035700018230CA2194600901E20FEF74BFA0120DA
:103580000C2309A2002100901E20FEF743FA01201F
:103590000C2308A2302100901E20FEF73BFAFEF714
:1035A00033F908BD44414300555020203A4441546A
:1035B00000000000444F574E3A41444300000000D1
:1035C00000B5254B21F0004287B09A4203DC00226F
:1035D000134600922BE0214B9A4208D140B94FF09C
:1035E0000100FDF754F9FFF706FA07B000BD03DB51
:1035F000FFF7FEF907B000BD02AAFEF7EBFE10F0E0
:1036000003014FF001000DD0012914D002291AD076
:103610000DF1080C9CE80F00FFF7A0F807B081F04F
:10362000004100BD0DF1080C00909CE80F00FFF771
:1036300069F907B000BD0DF1080C9CE80F00FFF719
:103640008DF807B000BD0DF1080C00909CE80F004C
:10365000FFF758F9E2E70000FB21E93F0000F07FA7
:103660002DE9F04106460F4600F048FE04000D46E5
:1036700018BF0120284320F00040C0F17F6000F116
:10368000E040C00F0ED0301C18BF0120384320F09E
:103690000040C0F17F6000F1E040C00F04BF012096
:1036A000FDF7F5F820462946BDE8F08138B5012040
:1036B0000C2319A2242100905820FEF7ABF9FEF745
:1036C000A3F8174805235822002100902820FDF771
:1036D0007AFF1BE00020FDF75BFE0446032C15D1AA
:1036E00000201049086004200F4908700F48104955
:1036F000097800EBC100C0780D4908700B480978C3
:1037000000EBC10040680B49086003E00648007800
:103710000428DFD100BF38BD2D2D2D5344530000A8
:103720007C000020940123421D020020A4010020FF
:103730009C0100202002002010B5FFF7E7F94FF4AC
:10374000A060FDF731FFFDF775FEFDF7CBFFFDF73C
:1037500001FE01200F4908600F49C1F894010F488C
:103760000088401E81B26320FFF784FC01210C48D1
:10377000FEF7A9FB0B480088401E81B21320FFF71B
:103780008DFA002008490870084840680849086018
:1037900010BD00009481214200002342A0010020BE
:1037A000001000409E0100201D020020A401002006
:1037B000200200202DE9F74F92B0824689464FF44F
:1037C0000060109040F6E4411498884201DD0846FC
:1037D0001490149800F074FC0022D74BCDE90E0130
:1037E00000F0A2FA07460022D44B00F07DFC05460B
:1037F0000E46BAF1010F3CD1002437E0484600F0F4
:103800005FFCCDE90201204600F05AFCCDE9000141
:10381000DDE9022300F088FA00224FF08043CDE971
:10382000040100F061FC0746C54AC64B00F05CFC91
:10383000CDE90601FFF7C4FE2A463346CDE908016B
:1038400000F052FCCDE90C01109800F039FCCDE9F4
:103850000A01DDE90C2300F0B7F9CDE90E0100F013
:10386000EBFBB94921F81400601C84B24C45C5DB60
:103870005EE1BAF1020F38D1002433E0484600F08F
:103880001FFCCDE90201204600F01AFC0746DDE9E5
:10389000022300F049FA0022AC4BCDE9040100F00C
:1038A00013FE00224FF08043CDE9060100F01CFC1E
:1038B0002A463346CDE9080100F016FCCDE90C019B
:1038C000109800F0FDFBCDE90A01DDE90C2300F0C2
:1038D0007BF9CDE90E0100F0AFFB9B4921F8140004
:1038E000601C84B24C45C9DB22E1BAF1000F31D132
:1038F000002410E0109800F0E3FB2A463346CDE99F
:103900000E0100F061F9074600F096FB8E4921F8A0
:103910001400601C84B209EBD971B4EB610FE9DBD0
:10392000484609EBD071C1F34F0410E0109800F045
:10393000C7FB2A463346CDE90E0100F0C5FD074618
:1039400000F07AFB804921F81400601C84B24C45D9
:10395000ECDBEDE0BAF1030F79D1002433E0484607
:1039600000F0AEFB07468846204600F0A9FB3A4629
:103970004346CDE9020100F0D7F90022744BCDE9AE
:10398000040100F0A1FD0022724BCDE9060100F018
:10399000ABFB2A463346CDE9080100F0A5FBCDE993
:1039A0000C01109800F08CFBCDE90A01DDE90C2335
:1039B00000F00AF9CDE90E0100F03EFB624921F862
:1039C0001400601C84B209EBD971B4EB610FC6DB43
:1039D000484609EBD071C1F34F0434E0484600F08B
:1039E0006FFB07468846A9EB040000F052FB3A46FD
:1039F0004346CDE9020100F097F90022544BCDE98E
:103A0000040100F061FD0022524BCDE9060100F0F7
:103A10006BFB2A463346CDE9080100F065FBCDE992
:103A20000C01109800F04CFBCDE90A01DDE90C23F4
:103A300000F0CAF8CDE90E0100F0FEFA424921F883
:103A40001400601C84B24C45C8DB71E0FFE7BAF19A
:103A5000040F6DD14FF0000B67E0484600F030FBDB
:103A6000CDE90401584600F02BFB354A3A4BCDE92D
:103A7000000100F039FBCDE90201DDE9042300F08B
:103A800053F9364A364BCDE9060100F09DF8CDE9F1
:103A90000801FEF7EDFF00222C4BCDE90A0100F0F2
:103AA00023FBCDE90E01484600F00AFBCDE90601F3
:103AB000584600F005FB224A274BCDE9020100F0F1
:103AC00013FBCDE90401DDE9062300F02DF9CDE972
:103AD0000801FFF775FD00221C4BCDE90A0100F03B
:103AE00003FBCDE90C01DDE90E2300F06DF807467C
:103AF00088463A4643462846314600F0F5FACDE975
:103B00000C01109800F0DCFACDE90A01DDE90C2384
:103B100000F05AF8CDE90E0100F08EFA0A4921F8BA
:103B20001B000BF101001FFA80FBCB4595DB00BFAA
:103B300015B0BDE8F08F000000C8A94000FC9F4010
:103B40001F85EB51B81E0940140700200000E03F1C
:103B50000000D03F00001040B81E1940BE9F1A2F31
:103B6000DD24EE3F21F00042A2F16052B2F5801F49
:103B700001F0004328BFD2F17F6C0BD95FEA001C33
:103B800043EAC20242EB507018BF704728BF20F0D2
:103B900001007047B2F5801FBCBF184670474FEA5E
:103BA000410C1CF5001F02D2084600F000BF70B5A2
:103BB00000F044FB00000089FFF7F6BF4FF0004023
:103BC000A0F580007047000010B591EA030F48BFD0
:103BD00083F0004300F18084841A71EB030C05D25A
:103BE000121943EB0C03001B61EB0C01DFF824E11D
:103BF0004FEA1154A4EB135C1EEA430F18BF9EEA70
:103C0000445F73D023EA0E03DCF1200E21EA045155
:103C100043F4801332D322FA0CFE10EB0E0023FA89
:103C20000CFE41EB0E01CCF1200E03FA0EFE10EB60
:103C30000E0051F10001B1F5801FCCF1200E32D2FF
:103C400001EB045112FA0EF2BDE8104058BF704764
:103C5000401C38BF5FEA420218BF7047002814BFFB
:103C600020F0010041F100014FEA410313F5001F6C
:103C700038BF7047A1F1C04100F02EBB012A43EBD1
:103C80000302ACF1200CDCF11F0E32BF4FF0000E2E
:103C900023FA0CF310EB030041EB0451B4EB115F7A
:103CA000D0D0A1EB045101F5801149085FEA300042
:103CB00001EB04510ED350F1000038BF12FA0EFE92
:103CC00008D1BDE81040C9E7401C38BF5FEA420296
:103CD000CAD1C3E7BDE810404FEA410313F5001F06
:103CE00038BF7047A1F1C04100F0F6BA9EEA445FC8
:103CF00008D011EA5E0FBDE8104004BF01F000419A
:103D000000207047BDE8104070B500F097FA00BF82
:103D100064FBBE3E0000E0FF02494FF0000000F0EF
:103D2000C0BE00BF0000F87F2DE9C04130B4DFF80D
:103D3000A0C23CEA111418BF3CEA131400F0EC8056
:103D400081EA03051CEA111444EAD57418BF1CEA81
:103D5000131500F0C780A4EB05044FF0004545EAB9
:103D6000C12145EAC32341EA505143EA525304F1C9
:103D70007F74994204F500344FEAC0204FEAC22212
:103D800008BF904200F09C804FEA13650FF2401686
:103D9000765D4FEA134506FB05F7C7F1807706FB12
:103DA00007F74FEAD737A7FB03687642C8F5803894
:103DB000A7FB06CE38BFA8F1010807FB08E64FF0C5
:103DC000000EA6FB028CE6FB03CEDCF1000CCEF16C
:103DD000004E38BFAEF1010EA6FB0C584FF00007A5
:103DE0004FF00005E6FB0E87A1FB08C6A0FB07CE3F
:103DF00016EB0E0645F10005E1FB076515F1E04EF7
:103E00007EBFA4F580345FEA46066D4116F1800757
:103E100045F100054FEA17274FEA066647EA0567AE
:103E2000A6F1DE46B6F1805F4FEA15251FD9384668
:103E300024F0010C05EBC471BCF1FE6F01EB0C1119
:103E400002D8F0BCBDE8008124425CBF01F5801EB1
:103E50009EEAC47F02D4F0BCBDE80081244238D47D
:103E6000F0BCA1F1C041BDE8004100F035BA4FEA15
:103E7000D22242EA43524FEAD323A7FB02864FEAFB
:103E8000D02040EA415007FB03661EEA0E0F4FEABE
:103E9000D12105FB026658BFA6EB0056B6EB0056D3
:103EA0004FEA520E4EEAC37E18EB0E0E56EB530E3F
:103EB000BDD518EB02085E417F1C55F10005B6E741
:103EC0004FF480154FF000074FF000064FF0000848
:103ED000ADE7F0BC4FF0000001F1C04101F000413E
:103EE000BDE8008111EA0C1F0CEA131500D00CE0AC
:103EF00013EA0C1F00F025804FF00000F0BC81EAAF
:103F0000030101F00041BDE80081F0BCBDE80041C3
:103F100081EA030100F0E0B9F0BCBDE8004170B5F2
:103F200000F08CF9097EFC3E00F007B881EA03013D
:103F30004FF0000001F00041704781EA030100F0FA
:103F4000CBB9F0BCBDE800414FF0000021497047FB
:103F5000FFFDFBF9F7F5F4F2F0EEEDEBE9E8E6E44E
:103F6000E3E1E0DEDDDBDAD8D7D5D4D3D1D0CFCDD5
:103F7000CCCBCAC8C7C6C5C4C2C1C0BFBEBDBCBB0E
:103F8000BAB9B8B7B6B5B4B3B2B1B0AFAEADACAB09
:103F9000AAA9A8A8A7A6A5A4A3A3A2A1A09F9F9EE3
:103FA0009D9C9C9B9A999998979796959594939395
:103FB000929191908F8F8E8E8D8C8C8B8B8A89892C
:103FC00088888787868585848483838282818180AF
:103FD0000000FF070000F87F4FEA41034FEA535308
:103FE000A3F58063D3F11E03C8BFD3F1210C0CDD10
:103FF0004FF0004242EAC12242EA505232FA03FC38
:104000008CEAE17CACEBE1707047102BC4BF002060
:10401000704703F5787CBCF1FF3F04D06FF000429D
:1040200082EA2100704770B500F008F949922480B7
:1040300000207047F2E700004FEA1153A3F58063B8
:10404000D3F11E03A8BFD3F1200C08DB4FF00042D0
:1040500042EAC12252EA505232FA03F07047094252
:104060000BD4102BC4BF0020704703F5787CBCF143
:10407000FF3F05D04FF0FF3070474FF00000704712
:1040800070B500F0DBF800BF499224800020704733
:10409000F0E710F0004248BF4042B0FA80F310FA57
:1040A00003F10AD0C3F11D0303F580634FEA4150C9
:1040B00002EB035202EBD12170474FF00000704732
:1040C000B0FA80F310FA03F10AD0C3F11D0303F52F
:1040D00080634FEA41504FEA035202EBD12170470F
:1040E0004FF0000070470000DFF848C170B51CEACF
:1040F000111E1EBF1CEA13159EEA0C0F95EA0C0F49
:1041000000F06F8081EA030423EA4C134EEAD47E68
:1041100021EA4C1141F4801143F48013AE44A1FB19
:10412000024CA0FB0365AEF17F7E361955EB0C0502
:10413000A1FB034C4CF10003A0FB021C16EB0C0688
:10414000654153F10003094218BF46F0010613F41C
:10415000007F0BD14FEA03314FEA0530340341EAC7
:10416000155140EA16506FF003020AE04FEAC321EE
:104170004FEAC520F40241EA555140EA56506FF02B
:10418000020202EB2E4201EB025585EACE710AD003
:104190005FEA440C18BF24F0004450F1000041F1E4
:1041A000000120EAD47040F2FE7C624500D270BD6E
:1041B000A84214BF4FF080444FF04044002E08BF87
:1041C0000024BEF1806FA8BFA1F1C041BDE87040DE
:1041D00080F282804FF0000001F1C04101F0004107
:1041E00070479EEA0C0F0CEA131518BF95EA0C0FE6
:1041F00006D04FF0000081EA030E0EF0004170BDC2
:1042000000F01CF88900013E00F007B800F009B882
:104210004FEA430C5FEA5C5C08D081EA030100F0DE
:104220005BB84FEA410C5FEA5C5CF6D14FF00000EE
:10423000014970470000FF070000F87F0EF1020EF1
:104240002EF0030E5EF8046B364205D4012A43EBD0
:10425000030515F5001F12D8012841EB010C1CF5D0
:10426000001F0CD80ED14FEAD17C15F5001F0CEBC6
:104270004C0C0CF1020C08BF4CEBD37C04E04FF06B
:10428000080C01E04FEAD37C0CEB4C0526FA05F64E
:1042900006F00706B6F1040C06D20EEB860CBDE85C
:1042A00070404CF0010C6047DFE80CF0090B020293
:1042B0004FF000414FF00000A1F5002170BD1946FC
:1042C0001046012851EB010418BFD4F5001484BF37
:1042D000002001F0004170BD0808A0F500114FEA70
:1042E0003101704791EA030F10B581F000413FF5AD
:1042F00073AC83F0004300F0EFB800002DE9F0410B
:1043000001F5801CBCF5001FC0F2C3804FEA115CB0
:1043100021EA0C510CF1FD0C41F480115FEA5C0CB8
:104320000CF5C07C01D3400049413DA4890241EA1B
:10433000905187028E0E0A0CA45D04FB04F602FB6A
:1043400006F6C6F14046A4FB0662F60D46EA422692
:1043500006FB06F4A4FB01235242C3F1404338BFDD
:104360005B1EA6FB02420024E6FB0324D20B42EABA
:104370004446A6FB0623A1FB02E2A3FB07E4A41824
:104380004FF0000252F10002E3FB01426442C2F12D
:10439000404E38BFAEF1010EA6FB04234FF00002E1
:1043A000E6FB0E32A2FB03464FF00004B61954F1AF
:1043B0000004E2FB0264A1FB06E6A4FB07E816EB9F
:1043C00008064FF0000858F10008E4FB0168764247
:1043D000C8F1405838BFA8F10108A2FB06E4A3FBCE
:1043E00008E52D194FF0000454F10004E2FB0854D5
:1043F000A1FB05E6A7FB04E818EB06084FF0000652
:1044000056F10006E1FB048618F1200556F100067E
:10441000A809A8F11B08B10908F03F08B8F10A0F74
:1044200040EA86601CD901EB0C51BDE8F08100BF69
:10443000FCF5EEE8E2DDD8D3CFCBC7C3C0BDB9B63B
:10444000B4B1AEACA9A7A5A3A19F9D9B9A98969540
:104450009392908F8D8C8B898887868584838281C7
:10446000A0FB006800FB01F208EB4208B8EB8728CC
:1044700007D5341858EB0104D5D5401C51F1000183
:10448000D1E7341A78EB0104CDD4401E71F100015C
:10449000C9E75FEA4C0C5FEA9C5C0DD105D34FF095
:1044A000000001F00041BDE8F081BDE8F04170B5C9
:1044B000FFF7C4FE6DDBFFBEBDE8F0414FF000002A
:1044C000004970470000F87F10B591EA030F48BF1C
:1044D00083F000433FF580AB841A71EB030C07D2E5
:1044E00012198CF0004C43EB0C03001B61EB0C0128
:1044F000DFF8A4E14FEA1154A4EB135C1EEA430F6A
:1045000018BF9EEA445F00F0B08023EA6E03524277
:1045100021EA0451C3EB6E0338BF5B1EDCF1200EB1
:1045200025D322FA0CFE10EB0E0043FA0CFE41EBF1
:104530000E01CCF1200E03FA0EFE10EB0E0051F12D
:104540000001CCF1200E29D412FA0EF201EB045135
:10455000BDE8104058BF7047401C1CBFB2F1004F6F
:10456000704700280CBF491C20F00100704712EB77
:10457000020E43EB030218BF4FF0010E4EEA420257
:10458000ACF1200CDCF11E0E54D943FA0CFE10EBFA
:104590000E0051F1FF31CCF11E0ED5D50EF1010EFA
:1045A00012FA0EFE404141EB010101EB445C5FEA6F
:1045B0005C5C10D910EBDE7001EB045138BFBEF12A
:1045C000004FBDE8104018BF704700280CBF491CC1
:1045D00020F00100704730D24FEAD42C11F50011C1
:1045E00024F400641BD0B1FA81F20B3AA41AA41E81
:1045F000D2F12003914030FA03F31943904001EBCC
:10460000CC71002C01EB0451BDE81040A8BF7047ED
:1046100001F1C0414FF0000001F000417047B0FAD5
:1046200080F310FA03F100D110BDE41A173C4805DD
:10463000C90AE4E701EB045110BD491001EB045134
:10464000BDE810404FEA300002E04FF00001704733
:104650004A0008BF0042F8D0B2F5001F28BF7047DB
:1046600001F000414FF0000070479EEA445F07D020
:1046700011EA5E0FBDE8104004BF00210020704722
:10468000BDE8104070B5FFF7D9FD00BF40DFF63E32
:1046900083F00041104670470000E0FF43004FEAFE
:1046A000D30C4FEA3C0C43401FBF40070CF1605154
:1046B00013F0FE4F70471CF0006F03D100200CF088
:1046C000004170470CF0004343EA507010B540EAD7
:1046D000CC0000F026F900BF000000924FEA000174
:1046E000FFF7FABD4FF000414FF00000A1F50021A7
:1046F0007047000090EA010F48BF81F0004100F1CF
:104700006281421A3CBF801A89184FEAD0524FF09A
:104710007F4C1CEA410FA2EBD15318BF9CEA026FF9
:1047200000F03B804FF0004C4CEA00204CEA0121A5
:1047300021FA03FC10EB0C0C1ED202F1FF325FEAEF
:104740001C2040EBC25038BF70471CF07F0F4FEA6F
:10475000400C18BFBCF17F4F38BF7047C3F1200336
:10476000994008BF20F00100BCF17F4F38BF70476F
:10477000A0F1C04000F01BB94FEA3C00000A40EB3A
:10478000C25028BF1CF0FF0F4FEA400CE6D018BF04
:10479000BCF17F4F38BF7047EAE79CEA026F05D053
:1047A00010EA5C0F08BF00F00040704710B500F041
:1047B000B8F800BF64FBBE3E41000B0ED3F19E0271
:1047C00008D950F400034FEA032323FA02F048BF4C
:1047D0004042704710B500F0A4F800BF4992248011
:1047E000002070476FF0004282EA2000704700000E
:1047F00010F0004148BF4042B0FA80F310FA03F2D3
:10480000C3F19D030BD051EAC35101EB12205306B3
:1048100038BF704700F1010008BF20F00100704769
:104820004FF47F0C1CEAD0121EBF1CEAD11392EA8F
:104830000C0F93EA0C0F00F0478090EA010F48BF7D
:1048400042F480724FF0004C4CEA00204CEA012107
:1048500002EB0302A0FB0113A2F50002002918BF1E
:1048600043F001035B0028BF4FEA330342EB2242CF
:104870005FEA132C4CEBC2502EBFBCEB436FB2F57A
:104880007C0F70474FEA036CBCF1004F08BF20F06B
:104890000100B2F57C0F38BF70470BD582F0FF02E4
:1048A00012F5803FC8BF704700F1C040D8BF00F08C
:1048B0000040704700F5000C5FEA4C0C48BF7047A1
:1048C000B0F1C04000F073B890EA010F0CEAD113C8
:1048D00048BF42F48072624538BF634504D280EA23
:1048E000010000F00040704710B500F01AF800BF5A
:1048F0008900013E00F007B800F009B85FEA410CFA
:104900005FEA1C6C08D080EA010000F050B85FEA52
:10491000400C5FEA1C6CF6D14FF00040A0F580001F
:1049200070470EF1020E2EF0030E5EF8044B244287
:1049300004D44FEA4102B2F17F4F11D84FEA40034D
:10494000B3F17F4F0CD80ED14FEAD07CB2F17F4F3C
:104950000CEB4C0C0CF1020C08BF4CEBD17C04E0CE
:104960004FF0080C01E04FEAD17C0CEB4C0324FA29
:1049700003F404F00704B4F1040C06D20EEB840C2B
:10498000BDE810404CF0010C6047DFE80CF0070870
:1049900002024FF00040A0F5800010BD0846420022
:1049A00018BFD2F1807288BF00F0004010BDFF2117
:1049B00041EAD050C005704790EA010F48BF81F02E
:1049C00000413FF59EAE421A04D882F00042A0EBAF
:1049D000020011444FEAD0524FF07F4C1CEA410FC5
:1049E000A2EBD15318BF9CEA026F4AD04FF0004CA3
:1049F0004CEA00204CEA012121FA03FCB0EB0C0C3C
:104A00000FD412F0FE0F36D05FEA4C001DD5001215
:104A100040EBC25038BF70471CF03F0F18BF7047C3
:104A20000BE0A2F101025FEA1C2040EBC25038BF4C
:104A300070471CF07F0F18BF7047C3F120039940E7
:104A400014BF401E20F00100704780084FEA122377
:104A500008BF7047B0FA80FCA2EB0C02CCF1280C26
:104A600060FA0CF093EA122F04BF00EBC2507047BB
:104A70004FEAC3707047130A5FEADC1008BF704743
:104A8000F6E79CEA026F04D010EA5C0F08BF002032
:104A9000704710B5FFF745FF40DFF63E81F000405C
:104AA00070470CF00F03092B08BF082000F0598055
:104AB0000A2B0BD0082B18BF704708BF1CF0400F03
:104AC0000AD04FF000004FF0000170471CF0400F7B
:104AD00018BF4FF0004070471CF0100F08D020F0B6
:104AE000704300F07F4242EAD3014FEA43707047BF
:104AF00000F0604021F07F4242EA000201F07F4076
:104B000040EA727070474FF0FF0C4CF4E06C1CEA06
:104B100011531CBF9CEA030C9445C2BFDA4201EB5F
:104B200002517047002B0DD0BCF1000F0FD0002AAE
:104B300001F00041A4BF41F0E04141F07F614FF03E
:104B40000000704701F000414FF00000704750EA4C
:104B500001334FF09B0C18BF4CF0806C7FF4DCA845
:104B600070471CF4801F11D01CF4E02F03D06FEAB3
:104B7000CC31490070474FF04050EFF3008222F0F3
:104B8000704242EA000282F3008870474FF0000052
:104B9000704700000000000000000000000000005E
:104BA00000003F4000000000000000003000400016
:104BB00030004000000009000BC03D000BC03D006C
:104BC000090018C024407FE0224031800000180016
:104BD00024C01B000D803240018003801C40274010
:104BE0001C80074000401000600000000000000032
:104BF00000000000000000001F8020404020000056
:104C0000402020401F8000000000090006001F8097
:104C1000060009000000040004003F8004000400B6
:104C20000000001000600000000000000000040010
:104C30000400040004000400000000000040000024
:104C4000000000000000002001C006003800400005
:104C500000001F802040204020401F8000000000F6
:104C600010403FC000400000000018C0214022401A
:104C700024401840000010802040244024401B8025
:104C8000000002000D0011003FC0014000003C8008
:104C9000244024402440238000001F8024402440DE
:104CA0003440038000003000200027C0380020007E
:104CB00000001B802440244024401B8000001C0076
:104CC00022C0224022401F80000000000000084057
:104CD0000000000000000000000004600000000070
:104CE0000000000004000A0011002080404009007C
:104CF0000900090009000900000000004040208070
:104D000011000A00040018002000234024001800AD
:104D100000001F802040274029401F400000004025
:104D200007C039000F0001C0004020403FC02440B0
:104D300024401B8000001F80204020402040308005
:104D4000000020403FC0204020401F800000204045
:104D50003FC024402E4030C0000020403FC02440CF
:104D60002E00300000000F001080204022403380D1
:104D7000020020403FC0040004003FC0204020400B
:104D800020403FC020402040000000602020202024
:104D90003FC02000200020403FC024400B0030C016
:104DA000204020403FC020400040004000C03FC0A5
:104DB0003C0003C03C003FC0000020403FC00C400E
:104DC00023003FC020001F802040204020401F8043
:104DD000000020403FC024402400180000001F8035
:104DE0002140214020E01FA0000020403FC024407F
:104DF000260019C0004018C02440244022403180C1
:104E00000000300020403FC0204030000000200063
:104E10003F80004000403F80200020003E0001C055
:104E2000070038002000380007C03C0007C03800E9
:104E30000000204039C0060039C02040000020009A
:104E4000384007C0384020000000304021C02640D4
:104E5000384020C00000000000007FE040204020DB
:104E60000000000070000C00038000400000000003
:104E7000402040207FE000000000000020004000B3
:104E800020000000000000100010001000100010B2
:104E900000100000000040000000000000000000C2
:104EA00002800540054003C0004020003FC0044090
:104EB00004400380000000000380044004400640DA
:104EC000000000000380044024403FC00040000078
:104ED00003800540054003400000000004401FC05F
:104EE000244024402000000002E0055005500650F8
:104EF000042020403FC00440040003C000400000E4
:104F0000044027C000400000000000100010041002
:104F100027E00000000020403FC00140070004C01F
:104F20000440204020403FC000400040000007C037
:104F3000040007C0040003C00000044007C0044090
:104F4000040003C0004000000380044004400380CC
:104F50000000041007F0045004400380000000002B
:104F600003800440045007F00010044007C00240D2
:104F7000040004000000000006400540054004C095
:104F80000000000004001F800440004000000400F6
:104F900007800040044007C000400400070004C030
:104FA000018006000400060001C0070001C00600E1
:104FB0000000044006C0010006C0044000000410C8
:104FC000071004E00180060004000000044005C052
:104FD0000640044000000000000004007BE0402088
:104FE0000000000000000000FFF0000000000000D2
:104FF00040207BE0040000000000400080004000F2
:105000002000200040000000000000000000000020
:105010000000000000000000000000001FCC000C99
:1050200000000000000000000800300060000800E0
:10503000300060000000022003FC1E20022003FC60
:105040001E200220000000000E1811043FFF1084F3
:105050000C78000000000F0010840F3800C00778A3
:1050600018840078000000780F8410C411240E9872
:1050700000E40084000808006800700000000000E0
:1050800000000000000000000000000007E0181809
:10509000200440020000000040022004181807E02D
:1050A0000000000000000240024001800FF001807B
:1050B0000240024000000080008000800FF8008065
:1050C0000080008000000001000D000E00000000C4
:1050D00000000000000000000080008000800080D0
:1050E0000080008000800000000C000C0000000028
:1050F00000000000000000000006001800600180B1
:10510000060018002000000007F008081004100432
:10511000080807F000000000080408041FFC000451
:1051200000040000000000000E0C101410241044B5
:1051300011840E0C000000000C181004110411045E
:1051400012880C700000000000E0032004240824F2
:105150001FFC0024000000001F981084110411049B
:10516000108810700000000007F008881104110476
:1051700018880070000000001C00100010FC1300D4
:105180001C001000000000000E3811441084108430
:1051900011440E38000000000700088C1044104431
:1051A000088807F00000000000000000030C030C5A
:1051B00000000000000000000000000101060000E7
:1051C00000000000000000000080014002200410E8
:1051D0000808100400000220022002200220022001
:1051E0000220022000000000100408080410022021
:1051F00001400080000000000E001200100C106C36
:1052000010800F00000003E00C1813E4142417C4EE
:10521000082807D000000004003C03C41C400740DD
:1052200000E4001C000410041FFC1104110411040C
:105230000E880070000003E00C1810041004100425
:1052400010081C10000010041FFC100410041004AF
:10525000080807F0000010041FFC1104110417C413
:1052600010040818000010041FFC1104110017C0DE
:1052700010000800000003E00C1810041004104493
:105280001C780040000010041FFC10840080008087
:1052900010841FFC10040000100410041FFC1004F4
:1052A00010040000000000030001100110011FFEA7
:1052B00010001000000010041FFC1104038014648F
:1052C000181C1004000010041FFC1004000400044B
:1052D0000004000C000010041FFC1F0000FC1F0055
:1052E0001FFC1004000010041FFC0C04030000E06D
:1052F00010181FFC100007F0080810041004100418
:10530000080807F0000010041FFC108410801080B3
:1053100010800F00000007F0081810241024101C43
:10532000080A07F2000010041FFC1104110011C04C
:1053300011300E0C000400000E1C110410841084A7
:1053400010441C3800001800100010041FFC10044A
:1053500010001800000010001FF8100400040004E2
:1053600010041FF8100010001E0011E0001C007057
:1053700013801C0010001FC0103C00E01F0000E064
:10538000103C1FC000001004180C163401C001C0EE
:105390001634180C100410001C00130400FC130435
:1053A0001C00100000000804101C1064108413047A
:1053B0001C04101800000000000000007FFE4002E6
:1053C000400240020000000030000C00038000603A
:1053D000001C0003000000004002400240027FFE6B
:1053E000000000000000000000002000400040001D
:1053F0004000200000000001000100010001000148
:1054000000010001000100004000400020000000F9
:105410000000000000000000009801240144014445
:10542000014400FC000410001FFC0088010401047A
:105430000088007000000000007000880104010472
:1054400001040088000000000070008801040104CD
:1054500011081FFC0004000000F80144014401444D
:10546000014400C800000000010401040FFC110405
:10547000110411001800000000D60129012901299A
:1054800001C90106000010041FFC00840100010096
:10549000010400FC000400000104190419FC0004CC
:1054A00000040000000000000003000101011901D8
:1054B00019FE0000000010041FFC0024004001B48D
:1054C000010C010400000000100410041FFC000483
:1054D000000400000000010401FC0104010001FCC3
:1054E0000104010000FC010401FC00840100010032
:1054F000010400FC0004000000F8010401040104A0
:10550000010400F80000010101FF0085010401040D
:105510000088007000000000007000880104010491
:10552000010501FF00010104010401FC00840104E4
:10553000010001800000000000CC012401240124AE
:1055400001240198000000000100010007F8010497
:10555000010400000000010001F800040004000440
:10556000010801FC0004010001800170000C001022
:1055700001600180010001F0010C003001C0003029
:10558000010C01F0010000000104018C00740170A5
:10559000018C01040000010101810171000E00185D
:1055A00001600180010000000184010C013401440C
:1055B0000184010C00000000000000000000010058
:1055C0003EFC400240020000000000000000FFFF1F
:1055D0000000000000000000400240023EFC01000C
:1055E000000000000000000060008000800040001B
:1055F000400020002000000000000000000000002B
:10560000000000000000000000000000000000009A
:10561000000000000000000000000000000000008A
:105620000000000000000000000F80380FFE380F5F
:1056300080380000000000000000000000000000B2
:10564000000000000100000600000C00003800000F
:105650003100000600000C0000380000300000009F
:1056600000000000000061800067F807F980006119
:10567000800061800061800061800067F807F98028
:1056800000618000000000000000000001C0E00395
:10569000E0F00630080418081FFFFE040E08078714
:1056A000F00381E000000000000001F000060C00A3
:1056B000040408060C7001F9C0000E00003BE00075
:1056C000EC18070808040C180003E00000000001B3
:1056D000E00007F003F818041C0804170807E1D0DD
:1056E00003C0E00023B0003C0800200800001000C8
:1056F00000000000000100003100003200001C002A
:105700000000000000000000000000000000000099
:105710000000000000000000000000000000000089
:105720000000000000007F0001FFC00780F00C00B7
:1057300018100004200002000000000000200002F9
:105740001000040C00180780F001FFC0007F00006B
:105750000000000000000000000000000000000049
:1057600000004200006600006600003C00001800D7
:1057700003FFC0001800003C000066000066000047
:1057800042000000000008000008000008000008B7
:105790000000080001FFC000080000080000080029
:1057A00000080000080000000000000100003100B7
:1057B000003200001C00000000000000000000009B
:1057C00000000000000000000000000000000800D1
:1057D00000080000080000080000080000080000A1
:1057E0000800000800000800000800000000000099
:1057F0000000000000003800003800003800000001
:105800000000000000000000000000000000000098
:10581000000000000000000600001C0000700001F5
:1058200080000E0000380000C0000700001C0000CF
:10583000300000000000000000007F8001FFE00356
:105840008070060018040008040008060018038091
:105850007001FFE0007F80000000000000000000F9
:1058600001000801000801000803FFF807FFF80025
:105870000008000008000008000000000000000010
:105880000001C03802C0580400980401180402182E
:10589000040418061C1803F81801E0F800000000C2
:1058A000000000000001C0E003C0F004000804088C
:1058B0000804080806180803F41801E7F00001E0DE
:1058C000000000000000000000000300000D0000C8
:1058D000110000610000810803010807FFF80FFFB5
:1058E000F80001080001080000000000000000E0CE
:1058F00007FCD0060808061008061008061008065F
:105900001838060FF00607C0000000000000000075
:1059100000003F8001FFE0038430020818041008F3
:10592000041008041008071810030FF00007C00047
:10593000000000000000000003C000070000060097
:10594000000600F80607F806180006E00007000049
:1059500006000000000000000001E1E003F7F0068F
:105960003410041808041808040C08040C0806165F
:105970001803F3F001C1E000000000000000F8008F
:1059800003FC300306380402080402080402080479
:1059900004100308F001FFC0007F000000000000B9
:1059A000000000000000000000000000000070384F
:1059B0000070380070380000000000000000000097
:1059C00000000000000000000000000000000000D7
:1059D0000000301A00301C00000000000000000031
:1059E00000000000000000000000000000080000AF
:1059F00014000022000041000080800100400200ED
:105A00002004001008000800000000000000210031
:105A100000210000210000210000210000210000E1
:105A200021000021000021000021000000000000F2
:105A300000000000080008040010020020010040DF
:105A400000808000410000220000140000080000D7
:105A5000000000000003C00004C0000400000800B3
:105A600038080F380808380810000C300007E0002C
:105A700003C000000000000000003F8000FFE003C2
:105A80008070020F1006708804C088048308047FA9
:105A90008802C09003012000FE40000008000018AA
:105AA0000001F8003E0801C20007020007E2000002
:105AB000FE00001FC80001F80000380000080400C4
:105AC0000807FFF807FFF804080804080804080896
:105AD00004080806180803F41801E7F00001E000C4
